:1000000045C000004CC0000049C0000047C00000CF
:1000100045C0000043C0000041C000003FC00000D8
:100020003DC000003BC0000039C0000037C00000E8
:1000300035C0000033C0000031C000002FC00000F8
:100040002DC000002BC0000029C0000027C0000008
:1000500025C0000023C0000021C000001FC0000018
:100060001DC000001BC0000019C0000017C0000028
:1000700015C0000013C0000011C000000FC0000038
:100080000DC000000BC0000009C0000011241FBEFD
:10009000CFEFD0E1DEBFCDBF2DD03CC0B1CF1F929E
:1000A0000F920FB60F9211242F933F938F939F932C
:1000B00020E015C035B381E090E0022E02C0880F29
:1000C000991F0A94E2F7832B85BB3FEF85EA9EE0F8
:1000D000315080409040E1F700C000002F5F283091
:1000E00048F39F918F913F912F910F900FBE0F90EA
:1000F0001F9018958FEF84BB7894EAE6F0E080813A
:100100008260808389B7816089BF81B38E7F81BB24
:0801100015BAFECFF894FFCFF1
:00000001FF
