:1000000045C000004BC0000049C0000047C00000D0
:1000100045C0000043C0000041C000003FC00000D8
:100020003DC000003BC0000039C0000037C00000E8
:1000300035C0000033C0000031C000002FC00000F8
:100040002DC000002BC0000029C0000027C0000008
:1000500025C0000023C0000021C000001FC0000018
:100060001DC000001BC0000019C0000017C0000028
:1000700015C0000013C0000011C000000FC0000038
:100080000DC000000BC0000009C0000011241FBEFD
:10009000CFEFD0E1DEBFCDBF21D04BC0B1CF8FEFCE
:1000A00084BB089585BB0895FC019081292F30E021
:1000B000220F331F991F9927991F892F822B808325
:1000C000F1CF0895FC01908180E8989F9001112460
:1000D0009695892F822B8083E5CF0895CF93DF9368
:1000E0001F92CDB7DEB7DBDF81E0898310E00DC062
:1000F000CE010196D9DF2FEF85EA9EE021508040A6
:100100009040E1F700C000001F5F173088F310E057
:100110000DC0CE010196D6DF2FEF85EA9EE021507B
:1001200080409040E1F700C000001F5F173088F367
:06013000DDCFF894FFCFC3
:00000001FF
