:1000000045C000004BC0000049C0000047C00000D0
:1000100045C0000043C0000041C000003FC00000D8
:100020003DC000003BC0000039C0000037C00000E8
:1000300035C0000033C0000031C000002FC00000F8
:100040002DC000002BC0000029C0000027C0000008
:1000500025C0000023C0000021C000001FC0000018
:100060001DC000001BC0000019C0000017C0000028
:1000700015C0000013C0000011C000000FC0000038
:100080000DC000000BC0000009C0000011241FBEFD
:10009000CFEFD0E1DEBFCDBF3AD060C0B1CFDC0141
:1000A000ED91FC911197429121E030E0C901129647
:1000B0000C9002C0880F991F0A94E2F7842B80836A
:1000C0000895DC01ED91FC911197408121E030E031
:1000D000C90112960C9002C0880F991F0A94E2F78A
:1000E000842B80830895DC01ED91FC911197408170
:1000F00021E030E0B90112960C9002C0660F771F24
:100100000A94E2F7CB018095842380830895CF93EE
:10011000DF9300D01F92CDB7DEB785E390E09A83DE
:1001200089831B82CE010196BADFCE010196C9DF19
:100130002FEF85EA9EE0215080409040E1F700C01B
:100140000000CE010196CFDF2FEF85EA9EE021501F
:1001500080409040E1F700C00000E7CFF894FFCF67
:00000001FF
