:1000000045C0000058C0000056C0000054C00000A9
:1000100052C0000050C000004EC000004CC00000A4
:100020004AC0000048C0000046C0000044C00000B4
:1000300042C0000040C000003EC000003CC00000C4
:100040003AC0000038C0000036C0000034C00000D4
:1000500032C0000030C000002EC000002CC00000E4
:100060002AC0000028C0000026C0000024C00000F4
:1000700022C0000020C000001EC000001CC0000004
:100080001AC0000018C0000016C0000011241FBED6
:10009000CFEFD0E1DEBFCDBF11E0A0E0B1E0E8E9F5
:1000A000F1E000E00BBF02C007900D92A431B10750
:1000B000D9F761D06FC0A4CF83B18F7B83B9089586
:1000C00083B18F7783B983B1806883B983B18F7728
:1000D00083B98FEF98E10197F1F700C00000089510
:1000E0001F93CF93DF93182FC2E6D0E088818F70E3
:1000F000912F907F892B8883E3DF288130E1139F44
:10010000C0011124922F9F70892B8883D9DFDF9142
:10011000CF911F910895CF93C82F83B18F7D83B95D
:10012000CBDF8C2FDDDFCF910895CF93C82F83B124
:10013000806283B9C1DF8C2FD3DFCF9108956F70B8
:10014000817090E4899F600D1124862F8058E3CF41
:1001500008950F931F93CF938C01C0E002C0E5DF99
:10016000CF5FF801EC0FF11D80818111F8CFCF91A5
:100170001F910F91089560E080E0E1DF80E091E061
:10018000E8DF60E081E0DBDF8AE091E0E2DF80E051
:0801900090E00895F894FFCF00
:1001980048656C6C6F2041565200476F6F6420347D
:0401A8006269740014
:00000001FF
